:100000000C943C000C9446000C9446000C94460062
:100010000C9446000C9446000C9446000C94460048
:100020000C9446000C9446000C9446000C94460038
:100030000C9446000C9446000C9446000C94460028
:100040000C9446000C9446000C9446000C94460018
:100050000C9446000C9446000C9446000C94460008
:100060000C9446000C9446000C9446000C944600F8
:100070000C9446000C94460011241FBECFEFCDBF58
:10008000DFE3DEBF0E944F000C946E000C94000072
:10009000A8956150710981099109D0F7089588EDFB
:1000A00084BF1092610080E18093210420E12093BD
:1000B000250481E49DE0A3E0B0E0A8950197A109A3
:1000C000B109D9F72093260481E497E7ABE1B0E0CA
:1000D000A8950197A109B109D9F7E9CFF894FFCF05
:00000001FF
